:020000040800F2
:10000000E8080020890100084F1D0008AD1A00080B
:100010004D1D0008F5030008FF2000080000000047
:10002000000000000000000000000000531D000858
:100030002F04000800000000511D0008551D000895
:10004000A3010008A3010008A3010008A301000800
:10005000A3010008A3010008A3010008A3010008F0
:10006000A3010008A3010008A3010008F903000888
:10007000A3010008A3010008A3010008A3010008D0
:10008000A3010008A3010008A3010008A3010008C0
:10009000A3010008A3010008A3010008A3010008B0
:1000A000A3010008A3010008A3010008A3010008A0
:1000B000A3010008A3010008A3010008A301000890
:1000C000A3010008A3010008A3010008A301000880
:1000D000A3010008A3010008A3010008A301000870
:1000E000A3010008A3010008A301000800F002F822
:1000F00000F03AF80AA090E8000C82448344AAF188
:100100000107DA4501D100F02FF8AFF2090EBAE885
:100110000F0013F0010F18BFFB1A43F0010318473B
:10012000A8420000C8420000103A24BF78C878C135
:10013000FAD8520724BF30C830C144BF04680C60ED
:10014000704700000023002400250026103A28BF35
:1001500078C1FBD8520728BF30C148BF0B60704739
:100160001FB51FBD10B510BD00F06CF81146FFF7AC
:10017000F7FF02F069FD00F08AF803B4FFF7F2FF21
:1001800003BC00F08DF8000009488047094800478B
:10019000FEE7FEE7FEE7FEE7FEE7FEE7FEE7FEE737
:1001A000FEE7FEE704480549054A064B7047000094
:1001B000C11D0008ED000008E8020020E80800204A
:1001C000E8040020E80400204FF0000200B51346C8
:1001D00094469646203922BFA0E80C50A0E80C5067
:1001E000B1F12001BFF4F7AF090728BFA0E80C5018
:1001F00048BF0CC05DF804EB890028BF40F8042B11
:1002000008BF704748BF20F8022B11F0804F18BF7D
:1002100000F8012B704770477047704710B500F029
:1002200009F8006810BD10B5044600F003F804603A
:1002300010BD00000048704784020020004870474D
:10024000840200207546FFF7F9FFAE4605006946B7
:10025000534620F00700854618B020B5FFF7A2FFEF
:10026000BDE820404FF000064FF000074FF00008B7
:100270004FF0000B21F00701AC46ACE8C009ACE838
:10028000C009ACE8C009ACE8C0098D46704710B59C
:100290000446AFF300802046BDE81040FFF76DBF75
:1002A00001491820ABBEFEE726000200704700009F
:1002B00070B5044600688168C943C90717D18168D1
:1002C00021F00101816000F0ABFC05460AE000BFAF
:1002D00000F0A6FC401B022804D920688068C043B7
:1002E000C00706D020688068C043C007F0D0002057
:1002F00070BDA06A40F01000A062E06A40F001000A
:10030000E062012070BD10B50146406A826A12F0B9
:10031000500F05D0006A026BBDE810400846104738
:10032000816A41F40071816201688968C1F34241C8
:1003300007290CD1017B51B9816A21F48071816256
:10034000816AC90403D4816A41F00101816200F02D
:10035000EFF810BD10B5406A816A41F0400181623A
:10036000C16A41F00401C16200F0E4F810BD10B5AB
:10037000406A00F0DEF810BDF8B50026044600968D
:1003800000688168C943C9072DD0816841F0010127
:100390008160164816490068B0FBF1F000E0401E8D
:1003A00000900028FBD100F03BFC054616E000BFA2
:1003B00000F036FC401B022810D920688068C0433A
:1003C000C0070BD0A06A40F01000A062E06A40F0C5
:1003D0000100E06284F824600120F8BD2068806894
:1003E000C043C007E4D10020F8BD0000E0000020B9
:1003F00040420F00FEE70000014800F0F9B900009C
:100400004002002030B590F840500124AC40C56B4C
:100410006C60046863604368102B036803D09960C4
:100420000068C26030BD9A600068C16030BD70472E
:1004300072B6FEE7F8B50024009490F82420254613
:10044000012A12D0012280F824204A681F23072A9B
:100450000DD20668776B521E02EB820293409F43D7
:100460000B6893401F43776319E00220F8BD0668CC
:100470000D2A0AD2376BD21F02EB820293409F43B0
:100480000B6893401F43376309E0F76A0D3A02EBAC
:10049000820293409F430B6893401F43F7620A68B0
:1004A000072306680A2A0AD3F7680A3A02EB4202CF
:1004B00093409F438B6893401F43F76008E0376980
:1004C00002EB420293409F438B6893401F43376186
:1004D0000A68102A01D0112A20D1124B02689A42D0
:1004E00017D193681B0219D4936843F400039360F7
:1004F0000968102912D10C490C4A0968B1FBF2F1C4
:1005000001EB8101490000E0491E00910029FBD167
:1005100004E0816A41F020018162012480F82450C6
:100520002046F8BD00240140E000002040420F00BA
:1005300070477047704700002DE9F0414FF0000709
:1005400004003D467ED0A06A002628B9E66284F801
:100550002460204600F07EF82046FFF7A9FEA16A3D
:10056000C90600D420B1A06A40F01000A06269E082
:10057000A16A21F4885141F00201A1626268E16937
:10058000237B0A4347EA43010A43A1684FF480777B
:10059000B94209D0012907D05FF0000194F814C0D6
:1005A000BCF1010F02D00AE03946F7E7F3B1A36AC4
:1005B00043F02003A362E36A43F00103E36223688C
:1005C000D3F804C02CF4694C4CEA010CC3F804C005
:1005D00021688B68DFF870C003EA0C0313438B605B
:1005E000A168B9420BD0012909D00CE0DFF85CC04A
:1005F000A3690CEB43330B4343F40061DFE7218A2B
:100600000D05A5F580152168CB6A23F470032B43F3
:10061000CB62216889680E4B1940914208D1E6628D
:10062000A16A21F0020141F00101A162BDE8F0815F
:10063000A06A20F0020040F01000A062E06A40F0E2
:100640000100E0620120F1E7FDF7E1FF00E0FFFFBC
:10065000FE0E1FFF70B586B0002506460095019579
:100660000295039500681A4988422ED11949886974
:1006700040F400708861886900F400700490886913
:1006800040F0040088618869694600F00400049025
:100690001F200090032001900F4800F0CBF9104C70
:1006A0000E48C4E900058020C4E9025040002061E2
:1006B000800060612020C4E90605204600F042F970
:1006C00008B1FFF7B5FE3462666206B070BD000087
:1006D00000240140001002400008014008000240D0
:1006E000400200202DE9F047894604463B49006856
:1006F0003B4F0E1D9046884201D0B84207D130686A
:1007000010F4702F03D001252846BDE8F08794F837
:10071000240001280CD0012084F824002046FFF793
:100720002BFE05004FF0000004D084F82400EBE716
:100730000220EAE7A16A40F60162914341F4807128
:10074000A1622168B94218D1326812F4702F14D016
:10075000A16A41F48011A1623168490505D5A16AF9
:1007600021F4005141F48051A162A16AC9040AD563
:10077000E16A21F00601E16206E0A26A22F4801239
:10078000A2624968E9E7E06284F82400216A15481A
:100790008862216A1448C862216A14480863216883
:1007A0006FF0020008602068816841F48071816008
:1007B000216843464A464C31206A00F0F1F820682F
:1007C0008168C1F342410729816803D041F4801157
:1007D000816099E741F4A001FAE70000002401409C
:1007E00000280140070300086F03000855030008B4
:1007F0002DE9F05FC16B0C6801680B68D0F840C050
:10080000042202FA0CF2494DDFF824A1494E4A4F66
:10081000DFF828B1DFF828E122422CD05A072AD588
:100820000A68920603D40A6822F004020A6001688A
:10083000A94201D1042219E0514501D1402215E01D
:10084000B14202D14FF4806210E0B94202D14FF4BC
:1008500080420BE0594502D14FF4802206E07145F9
:1008600002D14FF4800201E04FF080622F49083935
:100870004A60C16A3BE04FF0020808FA0CF818EA37
:10088000040F4FF000094FF0010235D05FEA837882
:1008900032D50B689B0605D40B6823F00A030B6066
:1008A00080F821200168A94201D1022219E05145B6
:1008B00001D1202215E0B14202D14FF4007210E0C4
:1008C000B94202D14FF400520BE0594502D14FF426
:1008D000003206E0714502D14FF4001201E04FF002
:1008E0000072124908394A6080F82090816A002914
:1008F0001AD0BDE8F05F0847082505FA0CF5254237
:1009000012D01B0710D50B6823F00E030B6090F874
:100910004010C36B02FA01F15960826380F8212014
:1009200080F82090016BE2E7BDE8F09F08000240EC
:100930001C000240300002404400024058000240C7
:100940006C00024030B528B308C81349142219447A
:10095000B1FBF2F18900C163104981630221417743
:100960001A6843F6F0718A43D0E900142143D0E9B4
:1009700002452C432143046921434469214384698E
:10098000214311431960002141630122427701771D
:10099000084630BD012030BDF8FFFDBF0000024019
:1009A00070B5044690F82000002501280CD00120E5
:1009B00084F8200094F821600020012E06D084F8ED
:1009C00020000225284670BD022070BD022684F852
:1009D0002160A0632068066826F0010606602046B4
:1009E000FFF710FDE06A00282068016802D041F09E
:1009F0000E0106E021F0040101602068016841F069
:100A00000A0101602068016841F001010160D9E735
:100A100070B5044600F004F90546601C02D0044895
:100A20000078044400F0FCF8401BA042FAD370BDEB
:100A3000D40000202DE9F84FDFF8B891002409F127
:100A4000040A0AF1040B23460F270BF1040EC9E038
:100A50000125A5402A40AA427DD1674ED1F804C0A5
:100A6000ACEB0608B44532D014DCBCF1030F3AD02D
:100A700009DCBCF1000F2AD0BCF1010F1CD0BCF185
:100A8000020F31D11DE0BCF1110F17D0BCF1120FD4
:100A90002AD119E0B8F5881F19D006DCB8F5803FD7
:100AA00015D0B8F5801F1FD111E0B8F5001F0ED08A
:100AB000B8F5041F18D10AE0CB6815E0CB681B1D00
:100AC00012E0CB6808330FE0CB680C330CE08B6886
:100AD0002BB1012B4FF0080303D0456104E0042340
:100AE00002E0056100E00023FF2A01D8064601E08C
:100AF00000F104064FEA840501D9A5F12005D6F8D6
:100B0000008007FA05FC28EA0C0803FA05F548EA14
:100B10000508C6F800804D68ED0062D5374DAE6916
:100B200046F00106AE61AD6924F0030605F001054B
:100B30000095334D06EB050CDCF80850A607360F80
:100B400007FA06F825EA0805DFF8B880404503D122
:100B50004FF0000817E044E0DFF8AC80404502D1D8
:100B60004FF001080FE0DFF8A480404502D14FF0BC
:100B7000020808E0DFF89880404502D14FF00308F2
:100B800001E04FF0040808FA06F848EA0508CCF836
:100B900008804D68D9F80060ED034D4601D5164335
:100BA00000E096432E604D68DAF80060AD035546CC
:100BB00001D5164300E096432E604D68DBF80060D7
:100BC000ED025D4601D5164300E096432E604D6868
:100BD000DEF80060AD02754601D5164300E096438D
:100BE0002E60641C0D682A46E5407FF431AFBDE8F5
:100BF000F88F0000000401400000111000100240B6
:100C00000000014000080140000C014000100140BC
:100C1000001401400AB1016170470904FBE70000BC
:100C20000148806870470000D400002002488168B5
:100C30000278114481607047D4000020074810B545
:100C4000016841F010010160032000F075F80F20E9
:100C500000F006F800F024F8002010BD002002404B
:100C600070B50D4D04464FF47A712878B1FBF0F061
:100C70000A490968B1FBF0F000F042FB48B9102CBA
:100C800007D200222146501E00F036F800206C608A
:100C900070BD012070BD0000D4000020E0000020E5
:100CA0000C4808B5816941F001018161816901F059
:100CB00001010091C16941F08051C161C06900F03A
:100CC000805000900448416821F0E06141F00071DB
:100CD000416008BD0010024000000140002809DB0F
:100CE00000F01F02012191404009800000F1E02046
:100CF000C0F8001170470000F0B40E4B1B680C46A2
:100D0000C3F30223C3F10705042D00D90425191DDF
:100D1000072901D2002300E0DB1E012606FA05F1B7
:100D2000491E214099409E40761E16403143F0BC3A
:100D300001F0FAB90CED00E0064900F0070208687E
:100D40004FF6FF03184040EA0220034A10430860B0
:100D5000704700000CED00E00000FA052DE9F843B3
:100D600005460078354CC00754D0E0690026C00025
:100D700008D4E06940F08050E061E069012600F0AD
:100D8000805000902E480168C90512D40168804641
:100D900041F480710160FFF743FF074605E000BFA3
:100DA000FFF73EFFC01B642823D8D8F80000C00519
:100DB000F6D5206A10F4407021D0A98801F4407162
:100DC00081421CD0206A1F49012220F440700A6031
:100DD00000220A602062C00711D0FFF721FF0746FA
:100DE00041F2883808E000BFFFF71AFFC11B4145F8
:100DF00002D90320BDE8F883206A8007F4D5206A71
:100E0000696820F44070084320621EB1E06920F058
:100E10008050E0612878800705D56068A96820F4D3
:100E20004040084360602878C00605D56068E968DE
:100E300020F48000084360600020DBE700100240DF
:100E400000700040400442422DE9F0470F46050083
:100E500061D0434E306800F00700B84209D23068D4
:100E600020F0070038433060306800F00700B842D7
:100E700051D128683B4C810712D5400703D56068E3
:100E800040F4E06060602878000703D5606840F4B3
:100E9000605060606068A96820F0F00008436060FE
:100EA0002878C00728D06868012810D02168022857
:100EB00010D0890700292EDA616821F0030101436F
:100EC0006160FFF7ADFE804641F288390DE0216890
:100ED0008903EFE78901EDE7FFF7A2FEA0EB080128
:100EE000494502D90320BDE8F0876068696800F0D1
:100EF0000C00B0EB810FEFD1306800F00700B84272
:100F00000BD9306820F0070038433060306800F0BB
:100F10000700B84201D00120E5E72878400705D551
:100F20006068E96820F4E0600843606028780007A2
:100F300006D56068296920F4605040EAC10060600D
:100F400000F018F86168084AC1F30311515CC84009
:100F50000649086006480068FFF782FE0020C2E7E5
:100F6000002002400010024096420008E0000020ED
:100F7000D800002012A185B00FC98DE80F0014A081
:100F8000144A006804905168134801F00C03042BC4
:100F900010D0082B0ED1C1F38343C9031DF8030001
:100FA0000AD5516804AAC1F34041515C0A4A504332
:100FB000B0FBF1F005B0704708494843FAE700007C
:100FC00002030405060708090A0B0C0D0E0F10108A
:100FD000010200000010024000127A0000093D00EA
:100FE0002DE9F84F040070D02078C04DC00749D0DB
:100FF0006868C0F38100012807D06868C0F38100E9
:10100000022809D16868C00306D52868800339D54D
:1010100060680028E7D035E06068B0F5803F0BD00D
:1010200010B1B0F5A02F11D0286820F480302860CE
:10103000286820F4802002E0286840F4803028608E
:10104000606890B1FFF7ECFD06460AE0286840F4BE
:1010500080202860F0E700BFFFF7E2FD801B6428D6
:1010600073D828688003F7D50CE0FFF7D9FD064652
:1010700005E000BFFFF7D4FD801B6428F0D8286886
:101080008003F7D420789A4E80074FF001094FF083
:10109000000839D5686810F00C0F07D06868C0F3F5
:1010A0008100022809D16868C00306D42868800737
:1010B00014D52069012808D110E02069B0B1C6F824
:1010C0000090FFF7ADFD074605E00AE1FFF7A8FD38
:1010D000C01B0228C4D828688007F7D52868616932
:1010E00020F0F80040EAC10028600DE0C6F800805A
:1010F000FFF796FD074604E0FFF792FDC01B0228AC
:1011000023D828688007F7D4207800072CD57948A1
:10111000A169D9B1C0F80090FFF782FD074604E04D
:10112000FFF77EFDC01B02280FD8686A8007F7D53D
:1011300071484FF4FA510068B0FBF1F0009000BF25
:101140000098411E0091FAD20EE080E0C0F80080C5
:10115000FFF766FD074604E0FFF762FDC01B0228AB
:1011600075D8686A8007F7D42078400760D5E869A9
:101170000027C00008D4E86940F08050E861E869C1
:10118000012700F0805000905C480168C90513D425
:101190000168834641F480710160FFF741FD82469A
:1011A00006E000BFFFF73CFDA0EB0A0064284ED824
:1011B000DBF80000C005F5D5E06801280AD008B1C9
:1011C000052813D0286A20F001002862286A20F040
:1011D000040002E0286A40F001002862E06841F261
:1011E000883B98B1FFF71CFD82460BE0286A40F06F
:1011F00004002862EEE700BFFFF712FDA0EB0A0132
:1012000059455AD8286A8007F6D50CE0FFF708FD43
:10121000824605E0FFF704FDA0EB0A0159454CD8D2
:10122000286A8007F6D41FB1E86920F08050E86191
:10123000E06988B36968C1F38101022944D00228BA
:10124000C6F8608004D0FFF7EBFC044638E034E0D9
:10125000FFF7E6FC074604E0FFF7E2FCC01B0228AC
:101260002BD828688001F7D4206AB0F5803F05D1DB
:101270006868A16820F4003008436860D4E9080178
:101280000843696821F4741108436860C6F86090E7
:10129000FFF7C6FC044606E025E000BFFFF7C0FCF0
:1012A000001B022809D828688001F7D51BE000BF81
:1012B000FFF7B6FC001B022802D90320BDE8F88F17
:1012C00028688001F4D40EE00128F7D06868226A0B
:1012D00000F48031914204D1616A00F470108842B8
:1012E00001D00120EAE70020E8E7000000100240FA
:1012F0000000424280044242E000002000700040B2
:1013000010B5401EB0F1807F01D3012010BD4FF019
:10131000E02460610F21601700F006FF0020A0614B
:1013200007202061002010BD70B590F83C20012AF4
:1013300026D0012480F83C40022280F83D2003683A
:101340005A689D6822F070060A6832435A600D4B55
:1013500002689A4208D0B2F1804F05D00A4B9A42F7
:1013600002D00A4B9A4204D1496825F08003194300
:10137000916080F83D40002180F83C10084670BD27
:10138000022070BD002C0140000400400008004015
:101390002DE9F0410D46040003D094F83D0018B14A
:1013A00008E00120BDE8F081002084F83C002046E0
:1013B00000F040F8022084F83D002068816844F283
:1013C000070291438160211D206800F0FBFC226828
:1013D00090689169166A2B68AF69034340F2033045
:1013E000814341EA0721A868EF6908434FF6FC41B1
:1013F0008843E96840EA0720014328692F6A000111
:1014000040EA0730084369686D6926F0220646EA1B
:101410000515294393602268906154F8460B0162D8
:10142000012004F81F09E0752076E0762077A0758A
:101430000020B7E710B586B0002400940194029410
:101440000394284B0268284928489A4217D18A6990
:1014500042F400628A618A6902F4006204928A6935
:1014600042F004028A61896901F0040104914FF499
:10147000407100916946FFF7DDFA06B010BDB2F188
:10148000804FFAD1CA6942F00102CA61CA6902F00A
:10149000010204928A6942F004028A618A6902F0B8
:1014A000040204928A6942F008028A61896901F0A3
:1014B000080104914FF4004100916946FFF7BAFA20
:1014C0000820CDE90004694609480294FFF7B2FA02
:1014D0000848416821F4407141F0E06141F48071B5
:1014E0004160CAE7002C01400010024000080140A2
:1014F000000C01400000014070B590F83E600446C9
:1015000090F83F5090F8423090F84320022021B1EB
:1015100004290ED0012E1BD114E0012E18D1012B6D
:1015200016D184F83E0084F8420001220021206890
:1015300020E0012D0CD1012A0AD184F83F0084F863
:10154000430014E0012D03D1012B01D1012A01D068
:10155000012070BD84F83E0084F83F0084F842000A
:1015600084F8430001220021206800F061FC012280
:101570000421206800F05CFC2068016841F0010152
:101580000160002070BD2DE9F041054690F83C0057
:101590000C46012836D0012085F83C008AB3042A85
:1015A00042D02868082A51D0D4E90023E168066AAD
:1015B00026F480560662C669076A26F4407646EA33
:1015C00003234FF6FF7606EA013123F470431943F3
:1015D0004FF4005627F4005306EA02321A43C16161
:1015E00002622868C16921F44061C1612868C1694B
:1015F000A26841EA0221C161002085F83C00BDE8F3
:10160000F08101E00220FAE7D4E90012E3682868DB
:1016100000F01CFD2868816921F00C0181612868B7
:101620008169A26811430FE0D4E90012E3682868D9
:1016300000F04AFD2868816921F4406181612868D1
:101640008169A26841EA02218161D5E7D4E90027D6
:10165000267B016A21F480710162C169036A21F06D
:101660000301394321F0F00731074FF4007647EAD0
:10167000116123F4007306EA02221A43C161026277
:101680002868C16921F00C01C1612868C169A2689C
:101690001143B0E710B5040003D094F83D0010B139
:1016A00007E0012010BD002084F83C00204600F037
:1016B0001FF8022084F83D00211D206800F082FB05
:1016C000012084F8460084F83E0084F83F0084F846
:1016D000400084F8410084F8420084F8430084F814
:1016E000440084F8450084F83D00002010BD00004F
:1016F00000B585B00021009101910291039100682D
:101700000D49884216D10D48C16941F00401C161FB
:10171000C16901F004010491816941F0080181610E
:101720008069694600F00800049040200090044859
:10173000FFF780F905B000BD00080040001002402E
:10174000000C014010B5044651B104290DD0082900
:1017500010D094F8410094F84520012811D10EE0F2
:1017600094F83E0094F84220F7E794F83F0094F88C
:101770004320F2E794F8400094F84420EDE7012A72
:1017800001D0012010BD022019B3042926D0082958
:1017900029D084F8410084F845000122206800F037
:1017A00047FB13492068884208D0B0F1804F05D02C
:1017B0001049884202D01049884204D1816801F062
:1017C0000701062903D0016841F0010101600020F2
:1017D00010BD84F83E0084F84200DEE784F83F0044
:1017E00084F84300D9E784F8400084F84400D4E743
:1017F000002C0140000400400008004000B585B006
:101800000021009101910291039100680B498842E7
:1018100011D10B48816941F00401816180696946F9
:1018200000F004000490C02000900220019003907A
:101830000448FFF7FFF805B000BD000000040040B9
:10184000001002400008014070B5044690F83C00CA
:101850000D4601280AD0012084F83C0042B1042A38
:1018600018D0082A2AD00C2A4DD139E0022070BDA8
:10187000206800F0F5FA2068816941F00801816173
:101880002068816921F004018161206881692A69E9
:10189000114311E0206800F00BFB2068816941F4DE
:1018A000006181612068816921F480618161206823
:1018B00081692A6941EA0221816124E0206800F0FF
:1018C00023FB2068C16941F00801C1612068C1693A
:1018D00021F00401C1612068C1692A69114311E046
:1018E000206800F03DFB2068C16941F40061C161DE
:1018F0002068C16921F48061C1612068C1692A69D9
:1019000041EA0221C161002084F83C0070BD10B59D
:10191000040003D094F83D0010B107E0012010BD91
:10192000002084F83C00204600F01EF8022084F8D5
:101930003D00211D206800F045FA012084F8460092
:1019400084F83E0084F83F0084F8400084F84100A9
:1019500084F8420084F8430084F8440084F8450089
:1019600084F83D00002010BD08B500680649884293
:1019700008D10648C16941F00201C161C06900F0A7
:101980000200009008BD000000040040001002406A
:1019900010B50446022249B104290ED0082913D0FB
:1019A00094F84100012816D0012010BD94F83E00A3
:1019B0000128F9D184F83E200FE094F83F00012877
:1019C000F2D184F83F2008E094F840000128EBD1E0
:1019D00084F8402001E084F841200122206800F0D2
:1019E00027FA0F492068884203D1426C42F4004232
:1019F00042642068884208D0B0F1804F05D0094980
:101A0000884202D00849884204D1816801F0070168
:101A1000062903D0016841F001010160002010BDDA
:101A2000002C014000040040000800400246002055
:101A300041B1042909D008290AD00C2901D1106824
:101A4000006C70471068406B70471068806B70477F
:101A50001068C06B704770B5044690F83C000128D0
:101A600012D0012584F83C50022084F83D00204625
:101A700000F098FA01004FF0000007D084F83D50C4
:101A800084F83C00012070BD022070BD2168CA6846
:101A900022F04002CA602168CA6822F48042CA600B
:101AA00084F83D5084F83C00002070BDFEE7000043
:101AB000FEB5002426480094019424490294016054
:101AC00089158160012505730475052606614FF4AB
:101AD00060214460C161FEF72FFD08B172B6FEE7D8
:101AE00007278DE8B00069461948FEF7A3FC08B146
:101AF00072B6FEE700950225694615480195FEF786
:101B000099FC08B172B6FEE700950325CDE90154B2
:101B100069460F48FEF78EFC08B172B6FEE7042452
:101B2000CDE9005469460A480297FEF783FC08B1E4
:101B300072B6FEE7CDE9004669460548FEF77AFC35
:101B4000002801D072B6FEE7FEBD0000002401406F
:101B5000E400002010B58CB024216846FEF734FB69
:101B600000241648099414490A94C0E900144FF659
:101B7000FF71C0E902410461446184610320CDE941
:101B800000040120CDE902040494CDE90540079446
:101B900069460A480894FFF7FBFB08B172B6FEE7F6
:101BA000099409A905480A94FFF7BEFB002801D053
:101BB00072B6FEE70CB010BD002C014014010020ED
:101BC00010B58CB024216846FEF7FEFA00241548B3
:101BD00009944FF080410A94C0E900144FF6FF7158
:101BE000C0E90241046184610320CDE900040120C1
:101BF000CDE902040494CDE90540079469460948FB
:101C00000894FFF7C5FB08B172B6FEE7099409A96D
:101C100004480A94FFF788FB002801D072B6FEE75B
:101C20000CB010BD5C01002010B58AB000240794F0
:101C30001C2168460894FEF7C7FA1A481849016043
:101C40004F21C0E901146421C0E903148461FFF746
:101C50005EFE08B172B6FEE7079407A91148089422
:101C6000FFF762FB08B172B6FEE76020CDE9000421
:101C70000294002269460B480494FFF7E5FD08B181
:101C800072B6FEE7042269460648FFF7DDFD08B19B
:101C900072B6FEE70348FFF7B1FD0AB010BD0000C1
:101CA00000040040A401002010B58CB0142104A849
:101CB000FEF78AFA002424480094019402940394C5
:101CC000099420490A94C0E900144FF6FF71C0E955
:101CD000024104618461FFF7DDFC08B172B6FEE7E2
:101CE000042004905020CDE90504079404A9164867
:101CF0000894FFF7B0FE08B172B6FEE70120CDE907
:101D000000400294002269460F480394FFF73BFC11
:101D100008B172B6FEE702200090019004226946E5
:101D20000948FFF730FC08B172B6FEE7099409A92B
:101D300005480A94FFF7F8FA002801D072B6FEE7CA
:101D40000CB010BD00080040EC010020FEE7FEE7EB
:101D500070477047FEF76ABF30B593B028216846D8
:101D6000FEF732FA14210AA8FEF72EFA0024012009
:101D70000F94022504900095102011940590109462
:101D8000129407946846FFF72BF908B172B6FEE784
:101D90000F20CDE90A040C940D9400210AA80E949A
:101DA000FFF752F808B172B6FEE70FA80F9511942D
:101DB000FEF7D4FF002801D072B6FEE713B030BDA5
:101DC00070470000F0B50268164B174C174D4FF0E6
:101DD0008047984205D0B84203D0A04201D0A84223
:101DE00003D122F070064A683243984205D0B842C7
:101DF00003D0A04201D0A84203D122F44074CA68A3
:101E000022434C6922F08002224302608A68C26247
:101E10000A688262984201D1096901630121416126
:101E2000F0BD0000002C014000040040000800400C
:101E300010B501F01F030121046A99408C4304622C
:101E4000016A9A401143016210BD10B5846842EAEC
:101E5000032224F47F440A432243826010BD000021
:101E600030B5026A22F001020262026A43688469A4
:101E700024F073050C682C4322F002058A682A437B
:101E80000A4DA8420BD122F00805CA6823F440731A
:101E90002A434D6922F004021D438B692B434360A2
:101EA000846149684163026230BD0000002C01403A
:101EB00030B5026A22F010020262026A4368846945
:101EC0000D6824F4E64444EA05248D6822F02002DB
:101ED00042EA05120B4DA8420ED1CD6822F08002D5
:101EE00042EA05124D6923F4406343EA85038D6994
:101EF00022F0400243EA85034360846149688163BC
:101F0000026230BD002C014030B5026A22F48072BA
:101F10000262036A4268C46923F4007324F0730503
:101F20000C682C438D6843EA05230C4DA8420ED162
:101F3000CD6823F4006343EA05234D6922F440523F
:101F400042EA05128D6923F4806342EA0512426079
:101F5000C4614968C163036230BD0000002C0140C8
:101F600030B5026A22F480520262046A4268C36990
:101F70000D6823F4E64343EA05238D6824F40054F6
:101F800044EA0534064DA84204D14D6922F480424A
:101F900042EA85124260C36149680164046230BD4F
:101FA000002C014010B503689A6822F070044A685A
:101FB000224322F007040A6822439A604A6812F01A
:101FC0000F0F30D11211082A2DD2DFE802F02C2C8D
:101FD0002C2C0B2127040B69D1E902210068FFF7A3
:101FE00034FF20E00A68052A10D00268136A146AD8
:101FF00024F00104146202689469096924F0F00471
:1020000044EA01119161006803620CE0012010BDF7
:102010000A698968006800F008F804E00A698968BC
:10202000006800F03FF8002010BD10B5036A046A94
:1020300024F001040462846924F0F00444EA0214E8
:1020400023F00A020A438461026210BD70B5046A7B
:1020500024F0010404628469056A0F4EB04208D07E
:10206000B0F1804F05D00D4EB04202D00C4EB042C0
:1020700003D124F00304144301E044F001041A07DF
:1020800024F0F00444EA126225F00A0301F00A0188
:1020900019438261016270BD002C014000040040C0
:1020A0000008004010B5036A23F01003036283693F
:1020B000046A23F4704343EA023224F0A00343EAA3
:1020C00001118261016210BD30B5046A24F0100470
:1020D00004628469056A24F4407444EA022222F40A
:1020E00070444FF6FF7202EA03322243A02425F027
:1020F000A00304EA011119438261016230BDFEE7C9
:10210000490050EAC12018BF04204A0D18BF40F012
:10211000010040F2FF72B2EB515F08BF40F00200D5
:10212000012808BF052070470907090E002804DBB5
:1021300000F1E02080F80014704700F00F0000F17B
:10214000E02080F8141D70472DE9F74F144694B035
:102150000021C4E902111599079121F00045C949F0
:102160008D4206DC1599C4E9000117B00020BDE8D6
:10217000F08FC549DFF814A3A9423CDD0799C44E8E
:102180000029C44FC44A1599534619DD01F0A0FB3C
:10219000554506D0C14AC24B01F09AFBC4E9000183
:1021A0000AE04FF0D352BE4B01F092FB32463B4661
:1021B00001F08EFBC4E9000117B00120BDE8F08FEB
:1021C00001F01AF8554506D0B44AB54B01F014F8A1
:1021D000C4E900010AE04FF0D352B14B01F00CF812
:1021E00032463B4601F008F8C4E9000117B04FF051
:1021F000FF30BDE8F08FAB49A942159978DB21F09B
:10220000004183468846A84AA84B01F057FA0022AD
:10221000A74B00F0F1FF01F0F7F9099001F023FA64
:1022200006460F469C4A534601F048FA43465A4632
:1022300001F042FB80468A46984A994B304639461F
:1022400001F03CFA2A0D01250B924246534601F05B
:1022500033FB032DC4E9000139D00B98C1F30A51B7
:10226000401A05EB45111139814230DA9148C346D5
:10227000784400EB0510CDF80CA00C90D0E90023B9
:102280003046394601F01AFA02460B460491069090
:102290005846039901F01CFB80468A4602460B46CD
:1022A0005846039901F014FB049B069A01F010FBB9
:1022B00083460C9803913946D0E90223304601F059
:1022C000FDF95A46039B01F003FB6D1CBDE707981F
:1022D0000028A2BF099817B0BDE8F08F616881F0AF
:1022E00000416160099817B04042BDE8F08FFFE7F8
:1022F00084461598C1F31301C0F30A50A0F2F530DB
:102300004FEA601800F01F06C6F12000139000206D
:102310000690079041F4801E05206D4676B1664A0E
:1023200008EB00017A4452F8213002EB8101B340FE
:102330004A68139922FA01F1194305E05F4908EB55
:102340000002794451F82210A1FB0E27A1FB0C13C7
:102350001A449A4234BF0123002303EB070A05EB1A
:102360008003D3E901B70F448F4234BF012100211C
:1023700093448B4411B1934502D903E0934501D2B4
:10238000012100E00021C3E901B7514445F82010C4
:10239000011EA0F10100C1DC0298059F00F1005070
:1023A000800F12900298DDE90356800001F05BF97E
:1023B000834628460D9101F06DF96FF01D0201F082
:1023C000FEFECDE90E01304601F064F96FF03D02EA
:1023D00001F0F5FE80468A46384601F05BF96FF061
:1023E0005D0201F0ECFE074642465346119100F0B3
:1023F00003FFDDE90E2300F0FFFE5A460D9B00F0BF
:10240000FBFE00250E465A4628460D9B01F060FA59
:10241000DDE90E2301F05CFA4246534601F058FA1A
:102420003A46119B01F048FADFF898A0244A534637
:1024300001F044F907468846234A244B3146284692
:1024400001F03CF93A46434600F0D6FE074688467E
:102450004FF0A84253463146284601F02FF93A463C
:10246000434600F0C9FE159A12F0004F04D0129AAC
:1024700081F0004152421292C4E90001129817B053
:10248000BDE8F08FFB21E93F7CD90240FB21F93FF9
:102490007370032E8A19A33B000040543163621A03
:1024A00061B4D03DFB21394183C8C96D305FE43F41
:1024B0000000E03F64200000E01F0000C21F000099
:1024C000182D4454FB21F93D3326A611460B113C2F
:1024D0002DE9FF4D21F0004807460C46B8F1795F21
:1024E00008DA01F091F8002801BF0020324904B059
:1024F000BDE8F08D3A4623461046194601F0DEF855
:10250000054602462D480E460B460621784400F04B
:102510005DF82A46334601F0D1F8DDE90223824610
:102520008B463846214601F0C9F804460F4652460C
:102530005B462846314601F0C1F822463B4601F091
:10254000C7F907468A464FF0FF322846314601F068
:1025500036FE1B4A90450ADA3A46534601F0B8F96E
:1025600004B00022BDE8F04D134B01F0A5B9154AA7
:102570004245A8BFA8F500154FF00004B8BF124DA2
:1025800022462B4601F0A4F90646884622462B46F1
:102590000020094901F09CF904460D463A4653468D
:1025A0003046414601F094F904B022462B46BDE87E
:1025B000F04D01F081B900000000F03F981D0000CF
:1025C0003333D33F0000E93F0000D23F2DE9F04113
:1025D0004F1E00EBC7010446D1E9000115461E4617
:1025E00037F006020DD02A46334601F067F87F1E09
:1025F00004EBC703D3E9002300F0FEFD37F0060229
:10260000F1D1022F25D0042F13D0062F18BFBDE81B
:10261000F0812A46334601F051F8D4E90A2300F04C
:10262000EBFD2A46334601F049F8D4E9082300F0CF
:10263000E3FD2A46334601F041F8D4E9062300F0D1
:10264000DBFD2A46334601F039F8D4E9042300F0D3
:10265000D3FD2A46334601F031F8D4E9022300F0D5
:10266000CBFD2A46334601F029F8D4E90023BDE822
:10267000F04100F0C1BD00002DE9FF4D054621F0FD
:10268000004084B00C46B0F1795F0BDA2846FFF7C2
:1026900037FD042808BF00F06FF8284608B021462F
:1026A000BDE8F08D2A460B46104601F007F80646B5
:1026B0000F462A46234601F001F8804626488A46FE
:1026C00032463B4605217844FFF780FF8346109849
:1026D000029160B3214A224B4046514600F0EEFF82
:1026E000CDE900015A4640465146029B00F0E6FF04
:1026F00082468846DDE906014FF0FF3201F05FFDBA
:102700005246434601F0E4F832463B4600F0D6FF1D
:10271000DDE9062301F0DCF8DDE9002301F0D8F85B
:1027200008B02A462346BDE8F04D01F0C5B80B4677
:102730005A463046394600F0C1FF084A084B00F0BF
:102740005BFD4246534600F0B9FF08B02A462346D7
:10275000BDE8F04D00F050BDD61C00004955555560
:102760005555C5BF012201F02ABD0022134610466F
:10277000114600F0F1BD0000024A0020110701F0EF
:102780001EBD000001FDFFFF10F1FF4F01D380F0DF
:10279000004070472DE9F05F0646FEF741FA604CB5
:1027A000604DDFF8849104F1800BA061012E5BD0B5
:1027B000022E57D1216ADFF874A1401A2062DAF89C
:1027C0000000406A206300F0E9F906462063206AB1
:1027D00001F0FEFA294601F043FB01F063F90746D8
:1027E0000D46304601F0DCFA01F05CF900224B4660
:1027F00000F064FF3A462B4600F0AEFD00224C4B41
:1028000000F05CFF6FF0010201F0D9FC00F0C2FCA7
:102810008146A0635D46DBF8500001F043F90646AF
:102820008846A86C01F03EF907460D46484601F07F
:1028300039F900223E4B00F08FFD012201F0BFFC70
:102840003A462B4600F03AFF3246434600F036FF48
:1028500000F0A0FC2065DAF8001000204862FEF7C6
:10286000DFF92062BDE8F09FE169DFF8C0A0401AFF
:10287000AAF1480AE061DAF80000406AE06200F07C
:102880008DF90646E062E06901F0A2FA294601F0FE
:10289000E7FA01F007F907460D46304601F080FAE5
:1028A00001F000F900224B4600F008FF3A462B46A3
:1028B00000F052FD00221E4B00F000FF6FF00102FD
:1028C00001F07DFC00F066FC814660635D46DBF84C
:1028D000500001F0E7F880460E46A86C01F0E2F8DF
:1028E00005460F46484601F0DDF80022104B00F087
:1028F00033FD012201F063FC2A463B4600F0DEFE78
:102900004246334600F0DAFE00F044FCE064DAF8B8
:10291000001000204862FEF783F9E061A2E70000A2
:10292000000000200000BB4300408F405C010020FD
:1029300000004E402DE9F0412E4E00252E4CB715DB
:102940008DB1012D22D0012280213046FEF762F99F
:10295000012239463046FEF75DF900212748FFF78E
:1029600065F8A06021E0002280213046FEF752F990
:10297000002239463046FEF74DF900211F48FFF787
:1029800055F860600120FEF743F801250022802100
:102990003046FEF73FF9012239463046FEF73AF954
:1029A00000211648FFF742F8E0600120FEF730F8FA
:1029B0006D1C032DC4DB60684FF4487300210122B5
:1029C000984207D2A068B0F5167F0FD9C4E9041267
:1029D000BDE8F081984209D9A368B3F52F7F05D2ED
:1029E000B0F57A7F02D2C4E90421F1E76161216187
:1029F000EEE70000000C014000000020EC01002088
:102A00002DE9F041174A0020174C0146C2F800009A
:102A100034F81130C838491C18440529F8DB106017
:102A2000114A104EE7884FF41661558880368F4260
:102A300003D98D4201D90D4811E001F0B1F9218887
:102A400022898046E81B891A00EB001001EB011176
:102A500000EB410001F0A4F9414601F0C3F8F06237
:102A6000BDE8F0810000002034020020000070C1A9
:102A70002DE9F04101F0F1FA1A4C05466065E16F6D
:102A80000E4601F0EDF9A16D01F038F8A06507469A
:102A90002846216E01F0ECFA314601F0A3F804F16A
:102AA00080060146E066B06801F0DAF980463946F2
:102AB000706801F0D5F907462946306801F0D0F971
:102AC000394601F01BF8414601F018F80649256621
:102AD0002067884202D80549884200DD0846BDE8E3
:102AE000F0810000000000200000C8C20000C842C1
:102AF0002DE9F04701F0B1FA254C05466065E16F1C
:102B00000E4601F0ADF9E16D00F0F8FFE065A16F50
:102B100007468946304601F065F88046294601F0AF
:102B20009FF9064640464FF07E5101F096FAA16E9D
:102B300001F096F9314600F0E1FF0146A066284613
:102B400001F096FA494601F04DF804F1800601467D
:102B5000E066706901F084F980463946306901F019
:102B60007FF907462946F06801F07AF9394600F006
:102B7000C5FF414600F0C2FF0649656620678842EE
:102B800002D80549884200DD0846BDE8F08700000C
:102B9000000000200000C8C20000C842B0F5004F8D
:102BA00002DBA0F57F40FF387047000000B5244BE2
:102BB00021F0004287B09A42DCBF0022134629DD93
:102BC000204B9A4208D140B94FF00100FDF72BFB92
:102BD000FFF7CBFD07B000BD03DBFFF7C3FD07B078
:102BE00000BD02AAFFF7B0FA10F0030104BF0DF117
:102BF000080C9CE80F000DD0012001290ED00229FD
:102C000014D00DF1080C00909CE80F00FFF734FD84
:102C100007B000BDFFF75CFC07B000BD0DF1080C6C
:102C200000909CE80F00FFF727FD05E00DF1080C70
:102C30009CE80F00FFF74CFC07B081F0004100BD9D
:102C4000FB21E93F0000F07F88B0FDF7F7FFFFF7B9
:102C500083F80025FF4C0095019502950395A06926
:102C600040F00400A061A06900F004000490A06995
:102C700040F00800A061A0694FF2B01600F0080013
:102C8000049000223146F448FDF7C4FF012000966D
:102C9000CDE90105022003906946EF48FDF7CAFE21
:102CA000606940F0010060616069002200F001008D
:102CB000009011460B20FEF71FF80B20FEF70EF8D0
:102CC000FEF7F6FEFEF746FFFEF77AFFFEF7ACFFD3
:102CD000FEF7EAFF01221021DF48FDF79BFF0122EA
:102CE0002021DD48FDF796FF0021DC48FEF72AFD94
:102CF0000421DA48FEF726FDD84905224831A1F51E
:102D0000A870FDF7EFFCD54800214838FEF740FEDB
:102D1000D24804214838FEF73BFEDFF84493C9F857
:102D2000005009F104073D603C1400222146CA48C6
:102D3000FDF770FF650000222946C748FDF76AFFCE
:102D4000661000223146C448FDF764FF4FF48058F6
:102D500000224146C048FDF75DFFC0480421D83835
:102D6000FEF7CAFBBD4804219038FEF7C5FB4FF4BF
:102D70007A7B5846FDF74CFE4FF0320AC9F800A0A6
:102D800000222146B448FDF745FF01222946B248FA
:102D9000FDF740FFC7F800A000223146AE48FDF71E
:102DA00039FF01224146AC48FDF734FF58466DE13A
:102DB000666320E0686F00F075FE81468A46D4E9BC
:102DC000100100F09BFE00F06DFE424601F0F7F9A5
:102DD0004A46534600F072FC81468A463846216BCB
:102DE00001F046F900F05EFE4A46534600F0B4FAA0
:102DF00000F0D0F960639B48A0619B48C4E90706D6
:102E0000606BB14680F00046A662C2464146206D26
:102E100001F003FA01463046FFF7B6FC01F0ECF88A
:102E20000BD2A06A00F05CF906465146206D01F015
:102E3000F4F9314601F014F8A062606B00F032FE44
:102E4000FFF7B4FE06460F46606A00F02BFE3246DE
:102E50003B4600F033FC00F09DF9A063606B00F08E
:102E600021FE00F047F906460F46206A00F01AFEE0
:102E700032463B4600F022FC06460F46616AE06996
:102E800000F0EEFFE16A00F0EBFFA16A00F036FE11
:102E900000F008FE32463B4600F0AEF900F07AF949
:102EA000E063216CA06B01F0E3F8FFF76DFC6F4E5F
:102EB000B0420CDD216CA06B01F0DAF800F010F9E3
:102EC000314600F0CDFF216C00F018FEA063012117
:102ED000A0462646206D01F0A0F9B16C00F0C0FFBD
:102EE00000F0E0FD019104460F460121B06B01F0B6
:102EF00094F905908346F16CF06B00F0B1FF5946F0
:102F0000079000F0FBFD00F0CDFDD346524601F0E6
:102F100056F93B46224600F01FFADFF854A1002282
:102F2000534600F0CBFB00F035F9E8630746019EFD
:102F30000799059801F09CF800F0B4FD5A4601F09D
:102F40003EF92246334600F007FA0022534600F0CD
:102F5000B5FB00F01FF928643946686BFFF788FD60
:102F60006864296CA86BFFF7C3FDA8643B4840F276
:102F7000DC51483002888A4214D242888A4211D2F7
:102F800082888A420ED2C2888A420BD20089884245
:102F900008D23349C1F80090091DC1F800903548A6
:102FA000FDF736FD344C686CA04210D32A4E012246
:102FB00091033046FDF72EFE00224FF400413046CB
:102FC000FDF728FE686C80F0004068640CE0224E3B
:102FD00000224FF480413046FDF71CFE0122D10350
:102FE0003046FDF717FE686C00F0BEFE1C49086015
:102FF000A86CA0420FD3184C012249142046FDF7BB
:1030000009FE0022A1142046FDF704FEA86C80F002
:103010000040A8640CE0104C00224FF40051204600
:10302000FDF7F8FD012211032046FDF7F3FDA86C22
:1030300000F09AFE0A49091D0860D8F82C10C8F85B
:103040003010D8F84010C8F84410FDF7E9FD696A5F
:10305000441A13E000100240000C0140EC01002073
:10306000340400406F1203396F1283390000484264
:1030700000004E40A086010000008080AC6216492E
:10308000686F00F0EDFE00F06FFE001BFDF7C0FC66
:10309000124D0026AE62FDF7C3FD6862FFF74AFCE1
:1030A0000120FFF777FB0220FFF774FBD5E913013E
:1030B00000F024FD4FF0FF38414601F0AEF805F175
:1030C00080042064FFF79CFC0746E062A06B10F0D0
:1030D000FF4F7FF46FAE6BE600007A4400000020E3
:1030E00010F1FF4F01D3024870474FF07E507047F8
:1030F000000080BF00B5254B21F0004287B09A4206
:1031000003DC0022134600922BE0214B9A4208D1A7
:1031100040B94FF00100FDF786F8FFF726FB07B036
:1031200000BD03DBFFF71EFB07B000BD02AAFFF7DF
:103130000BF810F003014FF001000DD0012914D05D
:1031400002291AD00DF1080C9CE80F00FFF7C0F916
:1031500007B081F0004100BD0DF1080C00909CE823
:103160000F00FFF789FA07B000BD0DF1080C9CE8CD
:103170000F00FFF7ADF907B000BD0DF1080C00908E
:103180009CE80F00FFF778FAE2E70000FB21E93F37
:103190000000F07F21F00042A2F16052B2F5801FE2
:1031A00001F0004328BFD2F17F6C0BD95FEA001C0D
:1031B00043EAC20242EB507018BF704728BF20F0AC
:1031C00001007047B2F5801FBCBF184670474FEA38
:1031D000410C1CF5001F02D2084600F008BF70B574
:1031E00000F016FB00000089FFF7F6BF4FF000402B
:1031F000A0F580007047000010B591EA030F48BFAA
:1032000083F0004300F16C83841A71EB030C05D248
:10321000121943EB0C03001B61EB0C01DFF824E1F6
:103220004FEA1154A4EB135C1EEA430F18BF9EEA49
:10323000445F73D023EA0E03DCF1200E21EA04512F
:1032400043F4801332D322FA0CFE10EB0E0023FA63
:103250000CFE41EB0E01CCF1200E03FA0EFE10EB3A
:103260000E0051F10001B1F5801FCCF1200E32D2D9
:1032700001EB045112FA0EF2BDE8104058BF70473E
:10328000401C38BF5FEA420218BF7047002814BFD5
:1032900020F0010041F100014FEA410313F5001F46
:1032A00038BF7047A1F1C04100F000BB012A43EBD9
:1032B0000302ACF1200CDCF11F0E32BF4FF0000E08
:1032C00023FA0CF310EB030041EB0451B4EB115F54
:1032D000D0D0A1EB045101F5801149085FEA30001C
:1032E00001EB04510ED350F1000038BF12FA0EFE6C
:1032F00008D1BDE81040C9E7401C38BF5FEA420270
:10330000CAD1C3E7BDE810404FEA410313F5001FDF
:1033100038BF7047A1F1C04100F0C8BA9EEA445FCF
:1033200008D011EA5E0FBDE8104004BF01F0004173
:1033300000207047BDE8104070B500F069FA00BF8A
:1033400064FBBE3E0000E0FF02494FF0000000F0C9
:1033500004BF00BF0000F87F2DE9C04130B4DFF8A2
:10336000A0C23CEA111418BF3CEA131400F0EC8030
:1033700081EA03051CEA111444EAD57418BF1CEA5B
:10338000131500F0C780A4EB05044FF0004545EA93
:10339000C12145EAC32341EA505143EA525304F1A3
:1033A0007F74994204F500344FEAC0204FEAC222EC
:1033B00008BF904200F09C804FEA13650FF2401660
:1033C000765D4FEA134506FB05F7C7F1807706FBEC
:1033D00007F74FEAD737A7FB03687642C8F580386E
:1033E000A7FB06CE38BFA8F1010807FB08E64FF09F
:1033F000000EA6FB028CE6FB03CEDCF1000CCEF146
:10340000004E38BFAEF1010EA6FB0C584FF000077E
:103410004FF00005E6FB0E87A1FB08C6A0FB07CE18
:1034200016EB0E0645F10005E1FB076515F1E04ED0
:103430007EBFA4F580345FEA46066D4116F1800731
:1034400045F100054FEA17274FEA066647EA056788
:10345000A6F1DE46B6F1805F4FEA15251FD9384642
:1034600024F0010C05EBC471BCF1FE6F01EB0C11F3
:1034700002D8F0BCBDE8008124425CBF01F5801E8B
:103480009EEAC47F02D4F0BCBDE80081244238D457
:10349000F0BCA1F1C041BDE8004100F007BA4FEA1D
:1034A000D22242EA43524FEAD323A7FB02864FEAD5
:1034B000D02040EA415007FB03661EEA0E0F4FEA98
:1034C000D12105FB026658BFA6EB0056B6EB0056AD
:1034D0004FEA520E4EEAC37E18EB0E0E56EB530E19
:1034E000BDD518EB02085E417F1C55F10005B6E71B
:1034F0004FF480154FF000074FF000064FF0000822
:10350000ADE7F0BC4FF0000001F1C04101F0004117
:10351000BDE8008111EA0C1F0CEA131500D00CE085
:1035200013EA0C1F00F025804FF00000F0BC81EA88
:10353000030101F00041BDE80081F0BCBDE800419D
:1035400081EA030100F0B2B9F0BCBDE8004170B5FA
:1035500000F05EF9097EFC3E00F007B881EA030145
:103560004FF0000001F00041704781EA030100F0D4
:103570009DB9F0BCBDE800414FF000002149704703
:10358000FFFDFBF9F7F5F4F2F0EEEDEBE9E8E6E428
:10359000E3E1E0DEDDDBDAD8D7D5D4D3D1D0CFCDAF
:1035A000CCCBCAC8C7C6C5C4C2C1C0BFBEBDBCBBE8
:1035B000BAB9B8B7B6B5B4B3B2B1B0AFAEADACABE3
:1035C000AAA9A8A8A7A6A5A4A3A3A2A1A09F9F9EBD
:1035D0009D9C9C9B9A99999897979695959493936F
:1035E000929191908F8F8E8E8D8C8C8B8B8A898906
:1035F0008888878786858584848383828281818089
:103600000000FF070000F87F4FEA41034FEA5353E1
:10361000A3F58063D3F11E03C8BFD3F1210C0CDDE9
:103620004FF0004242EAC12242EA505232FA03FC11
:103630008CEAE17CACEBE1707047102BC4BF00203A
:10364000704703F5787CBCF1FF3F04D06FF0004277
:1036500082EA2100704770B500F0DAF849922480C0
:1036600000207047F2E710F0004248BF4042B0FA35
:1036700080F310FA03F10AD0C3F11D0303F5806350
:103680004FEA415002EB035202EBD12170474FF059
:1036900000007047B0FA80F310FA03F10AD0C3F1CA
:1036A0001D0303F580634FEA41504FEA035202EBDA
:1036B000D12170474FF0000070470000DFF848C18B
:1036C00070B51CEA111E1EBF1CEA13159EEA0C0FF2
:1036D00095EA0C0F00F06F8081EA030423EA4C1393
:1036E0004EEAD47E21EA4C1141F4801143F4801358
:1036F000AE44A1FB024CA0FB0365AEF17F7E361900
:1037000055EB0C05A1FB034C4CF10003A0FB021C84
:1037100016EB0C06654153F10003094218BF46F051
:10372000010613F4007F0BD14FEA03314FEA053055
:10373000340341EA155140EA16506FF003020AE0E3
:103740004FEAC3214FEAC520F40241EA555140EA4D
:1037500056506FF0020202EB2E4201EB025585EA51
:10376000CE710AD05FEA440C18BF24F0004450F137
:10377000000041F1000120EAD47040F2FE7C624575
:1037800000D270BDA84214BF4FF080444FF04044B7
:10379000002E08BF0024BEF1806FA8BFA1F1C04178
:1037A000BDE8704080F282804FF0000001F1C0411E
:1037B00001F0004170479EEA0C0F0CEA131518BF88
:1037C00095EA0C0F06D04FF0000081EA030E0EF0D0
:1037D000004170BD00F01CF88900013E00F007B800
:1037E00000F009B84FEA430C5FEA5C5C08D081EA5C
:1037F000030100F05BB84FEA410C5FEA5C5CF6D174
:103800004FF00000014970470000FF070000F87FFB
:103810000EF1020E2EF0030E5EF8046B364205D454
:10382000012A43EB030515F5001F12D8012841EBCF
:10383000010C1CF5001F0CD80ED14FEAD17C15F5F8
:10384000001F0CEB4C0C0CF1020C08BF4CEBD37CB2
:1038500004E04FF0080C01E04FEAD37C0CEB4C0580
:1038600026FA05F606F00706B6F1040C06D20EEBB2
:10387000860CBDE870404CF0010C6047DFE80CF0AE
:10388000090B02024FF000414FF00000A1F50021AA
:1038900070BD19461046012851EB010418BFD4F53C
:1038A000001484BF002001F0004170BD0808A0F59D
:1038B00000114FEA3101704791EA030F10B581F012
:1038C00000413FF5A1AC83F0004300F009B80000CF
:1038D00010B591EA030F48BF83F000433FF594AC65
:1038E000841A71EB030C07D212198CF0004C43EBD5
:1038F0000C03001B61EB0C01DFF8A4E14FEA11544B
:10390000A4EB135C1EEA430F18BF9EEA445F00F06D
:10391000B08023EA6E03524221EA0451C3EB6E03E6
:1039200038BF5B1EDCF1200E25D322FA0CFE10EB13
:103930000E0043FA0CFE41EB0E01CCF1200E03FA0F
:103940000EFE10EB0E0051F10001CCF1200E29D437
:1039500012FA0EF201EB0451BDE8104058BF704757
:10396000401C1CBFB2F1004F704700280CBF491C1F
:1039700020F00100704712EB020E43EB030218BF68
:103980004FF0010E4EEA4202ACF1200CDCF11E0EAB
:1039900054D943FA0CFE10EB0E0051F1FF31CCF17B
:1039A0001E0ED5D50EF1010E12FA0EFE404141EB6E
:1039B000010101EB445C5FEA5C5C10D910EBDE7046
:1039C00001EB045138BFBEF1004FBDE8104018BFF5
:1039D000704700280CBF491C20F00100704730D20E
:1039E0004FEAD42C11F5001124F400641BD0B1FA75
:1039F00081F20B3AA41AA41ED2F12003914030FAAE
:103A000003F31943904001EBCC71002C01EB0451FE
:103A1000BDE81040A8BF704701F1C0414FF0000061
:103A200001F000417047B0FA80F310FA03F100D1C1
:103A300010BDE41A173C4805C90AE4E701EB04513C
:103A400010BD491001EB0451BDE810404FEA3000B1
:103A500002E04FF0000170474A0008BF0042F8D072
:103A6000B2F5001F28BF704701F000414FF0000081
:103A700070479EEA445F07D011EA5E0FBDE8104030
:103A800004BF002100207047BDE8104070B5FFF76B
:103A9000BFFE00BF40DFF63E83F000411046704796
:103AA0000000E0FF43004FEAD30C4FEA3C0C4340D8
:103AB0001FBF40070CF1605113F0FE4F70471CF020
:103AC000006F03D100200CF0004170470CF0004360
:103AD00043EA507010B540EACC0000F042FA00BF53
:103AE000000000924FEA0001FFF7E0BE4FF00041F6
:103AF0004FF00000A1F500217047000090EA010F8F
:103B000048BF81F0004100F1BA82421A3CBF801ADE
:103B100089184FEAD0524FF07F4C1CEA410FA2EBBC
:103B2000D15318BF9CEA026F00F03B804FF0004C6D
:103B30004CEA00204CEA012121FA03FC10EB0C0CAA
:103B40001ED202F1FF325FEA1C2040EBC25038BFA8
:103B500070471CF07F0F4FEA400C18BFBCF17F4F3D
:103B600038BF7047C3F12003994008BF20F001001F
:103B7000BCF17F4F38BF7047A0F1C04000F037BAAA
:103B80004FEA3C00000A40EBC25028BF1CF0FF0F78
:103B90004FEA400CE6D018BFBCF17F4F38BF7047EA
:103BA000EAE79CEA026F05D010EA5C0F08BF00F05C
:103BB0000040704710B500F0D4F900BF64FBBE3E72
:103BC000014800F0CABA00BF0000C07F401058BFD3
:103BD000C0F14040491058BFC1F140418142EFF36C
:103BE000008070474FF47F0C1CEAD0121EBF1CEA05
:103BF000D11392EA0C0F93EA0C0F00F0858090EA43
:103C0000010F48BF42F4807240F4000C41F4000000
:103C10002CF07F4120F07F4000B58142A2EB0302EF
:103C20000FF2081CACEB504EC0F100009EF800E013
:103C30004FEA4E0E00FB0EFC38BF49004FEA2C1C29
:103C400002F5FA020CFB0EF34FEACE1E4FEA112CDE
:103C50004FEAC1210EEB635E42EB22420EFB0CFCED
:103C60004FEA1C5300FB03114FEA112C4FEA0131BC
:103C70000EFB0CFC4FEADC4C00FB0C11C14228BFD0
:103C800009184CEB03335DF804EB10EB410143EBF7
:103C9000C250B2F57C0F38BF704729D512F0F00F33
:103CA0001CBF00F1C04000F00040704700818283DB
:103CB0008485868788898B8C8D8E8F91929395963B
:103CC00097999A9C9D9FA0A2A3A5A7A8AAACAEB0C5
:103CD000B2B3B5B7B9BCBEC0C2C5C7C9CCCED1D4CA
:103CE000D7D9DCDFE2E6E9ECF0F3F7FAFE000000FA
:103CF0004FEA400C0CF1807CBCF17E4F28BF70472E
:103D0000B0F1C04000F073B990EA010F0CEAD11392
:103D100048BF42F48072624538BF634507D213F44E
:103D20007F0F16D080EA010000F00040704710B508
:103D300000F017F9097EFC3E00F005B880EA0100AA
:103D400000F00040704780EA010000F0004000F001
:103D50004EB912F47F0F04BF0248704780EA010099
:103D600000F045B90000C07F41000B0ED3F19E0268
:103D700008D950F400034FEA032323FA02F048BFA6
:103D80004042704710B500F0ECF800BF4992248023
:103D9000002070476FF0004282EA20007047000068
:103DA00010F0004148BF4042B0FA80F310FA03F22D
:103DB000C3F19D030BD051EAC35101EB122053060E
:103DC00038BF704700F1010008BF20F001007047C4
:103DD000B0FA80F310FA03F2C3F19D030AD0D905BB
:103DE00001EB1220530638BF704700F1010008BFF5
:103DF00020F001007047000050EA010C00F1138030
:103E00001CF5000F58BFBCF5000F01D48842704765
:103E100007D710F5000F58BF11F5000F15D48842D1
:103E20007047894270471CF5000F04D5BCF5000FA0
:103E3000F7D5814270474FF0807C1CEB400F38BFB4
:103E40001CEB410F01D28142704710B500F089F898
:103E5000922449004FF000504FF08051FFF7B6BE5A
:103E60004FF47F0C1CEAD0121EBF1CEAD11392EA59
:103E70000C0F93EA0C0F00F0478090EA010F48BF47
:103E800042F480724FF0004C4CEA00204CEA0121D1
:103E900002EB0302A0FB0113A2F50002002918BFE8
:103EA00043F001035B0028BF4FEA330342EB224299
:103EB0005FEA132C4CEBC2502EBFBCEB436FB2F544
:103EC0007C0F70474FEA036CBCF1004F08BF20F035
:103ED0000100B2F57C0F38BF70470BD582F0FF02AE
:103EE00012F5803FC8BF704700F1C040D8BF00F056
:103EF0000040704700F5000C5FEA4C0C48BF70476B
:103F0000B0F1C04000F073B890EA010F0CEAD11391
:103F100048BF42F48072624538BF634504D280EAEC
:103F2000010000F00040704710B500F01AF800BF23
:103F30008900013E00F007B800F009B85FEA410CC3
:103F40005FEA1C6C08D080EA010000F050B85FEA1C
:103F5000400C5FEA1C6CF6D14FF00040A0F58000E9
:103F600070470EF1020E2EF0030E5EF8044B244251
:103F700004D44FEA4102B2F17F4F11D84FEA400317
:103F8000B3F17F4F0CD80ED14FEAD07CB2F17F4F06
:103F90000CEB4C0C0CF1020C08BF4CEBD17C04E098
:103FA0004FF0080C01E04FEAD17C0CEB4C0324FAF3
:103FB00003F404F00704B4F1040C06D20EEB840CF5
:103FC000BDE810404CF0010C6047DFE80CF007083A
:103FD00002024FF00040A0F5800010BD08464200EC
:103FE00018BFD2F1807288BF00F0004010BDFF21E1
:103FF00041EAD050C005704751EA000C00F113802F
:104000001CF5000F58BFBCF5000F01D4814270476A
:1040100007D711F5000F58BF10F5000F15D48142D6
:104020007047894270471CF5000F04D5BCF5000F9E
:10403000F7D5884270474FF0807C1CEB410F38BFAA
:104040001CEB400F01D28842704780EA010081EAF0
:10405000000180EA0100FFF7F8BE80F0004090EA1E
:10406000010F7FF552AD81F0004100F008B800006B
:1040700090EA010F48BF81F000413FF546AD421A7A
:1040800004D882F00042A0EB020011444FEAD05263
:104090004FF07F4C1CEA410FA2EBD15318BF9CEAB2
:1040A000026F4AD04FF0004C4CEA00204CEA01214C
:1040B00021FA03FCB0EB0C0C0FD412F0FE0F36D03B
:1040C0005FEA4C001DD5001240EBC25038BF70476C
:1040D0001CF03F0F18BF70470BE0A2F101025FEA2E
:1040E0001C2040EBC25038BF70471CF07F0F18BF38
:1040F0007047C3F12003994014BF401E20F0010017
:10410000704780084FEA122308BF7047B0FA80FC5E
:10411000A2EB0C02CCF1280C60FA0CF093EA122FFF
:1041200004BF00EBC25070474FEAC3707047130AD8
:104130005FEADC1008BF7047F6E79CEA026F04D024
:1041400010EA5C0F08BF0020704710B5FFF709FFA9
:1041500040DFF63E81F0004070470CF00F03092B62
:1041600008BF082000F07F800A2B0BD0082B18BF57
:10417000704708BF1CF0400F0AD04FF000004FF00E
:10418000000170471CF0400F18BF4FF0004070470F
:104190001CF0100F08D020F0704300F07F4242EA7C
:1041A000D3014FEA4370704700F0604021F07F4236
:1041B00042EA000201F07F4040EA727070474FF01F
:1041C000FF0C4CF4E06C1CEA11531CBF9CEA030C7E
:1041D0009445C2BFDA4201EB02517047002B0DD06B
:1041E000BCF1000F0FD0002A01F00041A4BF41F044
:1041F000E04141F07F614FF00000704701F0004165
:104200004FF00000704750EA01334FF09B0C18BF8D
:104210004CF0806C7FF498A870474FF0FF0212EAD0
:10422000D0521CBF92F0FF038B42C2BFD14200EBC1
:10423000C1507047002A0AD0002B0BD0002900F093
:104240000040A4BF40F0FE4040F40000704700F082
:104250000040704743024FF00B0C18BF4CF0806CCD
:104260007FF4AEAC70471CF4801F11D01CF4E02F1B
:1042700003D06FEACC31490070474FF04050EFF364
:10428000008222F0704242EA000282F30088704706
:104290004FF0000070470000000000000000010225
:1042A00003040607080900004C5555555555A53F10
:1042B0007751C1166CC156BF9015CB19A001FA3EBB
:1042C000AD529C804F7E92BEC4B1B4BD9EEE213EE5
:1042D000D43888BEE9FAA8BD00004054FB21F93F5C
:1042E0003163621A61B4D03D0000601A61B4D03D00
:1042F0007370032E8A19A33B0000002E8A19A33B7A
:10430000C14920259A837B3900000000000000008D
:104310006E83F9A22915444ED15727FCC0DD34F530
:10432000999562DB4190433CAB6351FE61C5BBDEB6
:104330003A6E24B7E0D24D42EA2E49061C92D109CA
:104340001CEB1DFE3EA729B1F53582E88444BB2E47
:1043500026709CE9417E5FB439D69139F439538394
:104360008B5F849C3B28F9BDFF97F81F0F9805DEF3
:104370008B112FEF1F6D0A5ACF7E366DB709CB27F1
:10438000663F464F2DEA5F9EC7BA27757BF1E5EB86
:10439000F739073DEA92528AB15FFB6B085D8D1FCA
:1043A000A6F810111111813FD561C119A0012ABFD2
:1043B0007DFEB157E31DC73EEB9C2B8AE6E55ABE56
:1043C0007CD5CF5A3AD9E53DE843000800000020EB
:1043D000E400000028010008CC440008E4000020AC
:1043E0000408000044010008000000000000000074
:1043F00000000000000000000000000000000000BD
:1044000000000000000000000000000000000000AC
:10441000000000000000000000000000000000009C
:10442000000000000000000000000000000000008C
:10443000000000000000000000000000000000007C
:10444000000000000000000000000000000000006C
:10445000000000000000000000000000CDCC4C3D3A
:10446000CDCCCC3DCDCC4C3DD7A3F03EEC51A840BB
:104470006F1283BBD7A3F03EEC51A8406F1283BBF1
:104480006F1203396F12833900000000008022444C
:10449000000000000000000000000000000000001C
:1044A000000000000000000000000000000000000C
:1044B0000000404200007043560E494001000000D9
:0C44C00010000000000000000024F400C8
:04000005080000ED02
:00000001FF
